:020000040000fa
:080000000002040000000000f2
:020000040000fa
:04000800320a0000b8
:020000040000fa
:04000c006409000083
:020000040000fa
:040010009209000051
:020000040000fa
:04001400ba09000025
:020000040000fa
:04001800e2090000f9
:020000040000fa
:04001c000a0a0000cc
:020000040000fa
:04002000320a0000a0
:020000040000fa
:04002400320a00009c
:020000040000fa
:04002800320a000098
:020000040000fa
:04002c00320a000094
:020000040000fa
:04003000320a000090
:020000040000fa
:040034006005000063
:020000040000fa
:04003800540400006c
:020000040000fa
:04003c00320a000084
:020000040000fa
:04004000320a000080
:020000040000fa
:04004400320a00007c
:020000040000fa
:040048003a09000071
:020000040000fa
:04004c00320a000074
:020000040000fa
:04005000320a000070
:020000040000fa
:040054006008000040
:020000040000fa
:040058001408000088
:020000040000fa
:04005c00320a000064
:020000040000fa
:04006000320a000060
:020000040000fa
:04006400320a00005c
:020000040000fa
:04006800320a000058
:020000040000fa
:04006c00de060000ac
:020000040000fa
:04007000320a000050
:020000040000fa
:04007400320a00004c
:020000040000fa
:04007800320a000048
:020000040000fa
:04007c00320a000044
:020000040000fa
:04008000320a000040
:020000040000fa
:04008400320a00003c
:020000040000fa
:04008800320a000038
:020000040000fa
:04008c00320a000034
:020000040000fa
:04009000320a000030
:020000040000fa
:04009400320a00002c
:020000040000fa
:040098008a050000d5
:020000040000fa
:04009c00320a000024
:020000040000fa
:0400a000f80800005c
:020000040000fa
:0400a400a2080000ae
:020000040000fa
:0400a800320a000018
:020000040000fa
:0400ac005c070000ed
:020000040000fa
:0400b000320a000010
:020000040000fa
:0400b40072060000d0
:020000040000fa
:0400b800320a000008
:020000040000fa
:0400bc00320a000004
:020000040000fa
:0400c000320a000000
:020000040000fa
:0400c400320a0000fc
:020000040000fa
:0400c800320a0000f8
:020000040000fa
:0400cc00320a0000f4
:020000040000fa
:0400d000320a0000f0
:020000040000fa
:0400d400320a0000ec
:020000040000fa
:0400d800320a0000e8
:020000040000fa
:0400dc00320a0000e4
:020000040000fa
:0400e000320a0000e0
:020000040000fa
:0400e400a60500006d
:020000040000fa
:0400e800d605000039
:020000040000fa
:0400ec00320a0000d4
:020000040000fa
:0400f00008070000fd
:020000040000fa
:0400f400320a0000cc
:020000040000fa
:0400f800320a0000c8
:020000040000fa
:0400fc0032070000c7
:020000040000fa
:04010000320a0000bf
:020000040000fa
:04010400320a0000bb
:020000040000fa
:0401080006060000e7
:020000040000fa
:04010c00320a0000b3
:020000040000fa
:04011000320a0000af
:020000040000fa
:04011400320a0000ab
:020000040000fa
:04011800320a0000a7
:020000040000fa
:04011c00320a0000a3
:020000040000fa
:04012000320a00009f
:020000040000fa
:04012400320a00009b
:020000040000fa
:04012800320a000097
:020000040000fa
:04012c00320a000093
:020000040000fa
:04013000320a00008f
:020000040000fa
:04013400320a00008b
:020000040000fa
:04013800320a000087
:020000040000fa
:04013c00320a000083
:020000040000fa
:04014000320a00007f
:020000040000fa
:04014400320a00007b
:020000040000fa
:04020800320a0000b6
:020000040000fa
:04020c006409000081
:020000040000fa
:04021000920900004f
:020000040000fa
:04021400ba09000023
:020000040000fa
:04021800e2090000f7
:020000040000fa
:04021c000a0a0000ca
:020000040000fa
:04022000320a00009e
:020000040000fa
:04022400320a00009a
:020000040000fa
:04022800320a000096
:020000040000fa
:04022c00320a000092
:020000040000fa
:04023000320a00008e
:020000040000fa
:040234006005000061
:020000040000fa
:04023800540400006a
:020000040000fa
:04023c00320a000082
:020000040000fa
:04024000320a00007e
:020000040000fa
:04024400320a00007a
:020000040000fa
:040248003a0900006f
:020000040000fa
:04024c00320a000072
:020000040000fa
:04025000320a00006e
:020000040000fa
:04025400600800003e
:020000040000fa
:040258001408000086
:020000040000fa
:04025c00320a000062
:020000040000fa
:04026000320a00005e
:020000040000fa
:04026400320a00005a
:020000040000fa
:04026800320a000056
:020000040000fa
:04026c00de060000aa
:020000040000fa
:04027000320a00004e
:020000040000fa
:04027400320a00004a
:020000040000fa
:04027800320a000046
:020000040000fa
:04027c00320a000042
:020000040000fa
:04028000320a00003e
:020000040000fa
:04028400320a00003a
:020000040000fa
:04028800320a000036
:020000040000fa
:04028c00320a000032
:020000040000fa
:04029000320a00002e
:020000040000fa
:04029400320a00002a
:020000040000fa
:040298008a050000d3
:020000040000fa
:04029c00320a000022
:020000040000fa
:0402a000f80800005a
:020000040000fa
:0402a400a2080000ac
:020000040000fa
:0402a800320a000016
:020000040000fa
:0402ac005c070000eb
:020000040000fa
:0402b000320a00000e
:020000040000fa
:0402b40072060000ce
:020000040000fa
:0402b800320a000006
:020000040000fa
:0402bc00320a000002
:020000040000fa
:0402c000320a0000fe
:020000040000fa
:0402c400320a0000fa
:020000040000fa
:0402c800320a0000f6
:020000040000fa
:0402cc00320a0000f2
:020000040000fa
:0402d000320a0000ee
:020000040000fa
:0402d400320a0000ea
:020000040000fa
:0402d800320a0000e6
:020000040000fa
:0402dc00320a0000e2
:020000040000fa
:0402e000320a0000de
:020000040000fa
:0402e400a60500006b
:020000040000fa
:0402e800d605000037
:020000040000fa
:0402ec00320a0000d2
:020000040000fa
:0402f00008070000fb
:020000040000fa
:0402f400320a0000ca
:020000040000fa
:0402f800320a0000c6
:020000040000fa
:0402fc0032070000c5
:020000040000fa
:04030000320a0000bd
:020000040000fa
:04030400320a0000b9
:020000040000fa
:0403080006060000e5
:020000040000fa
:04030c00320a0000b1
:020000040000fa
:04031000320a0000ad
:020000040000fa
:04031400320a0000a9
:020000040000fa
:04031800320a0000a5
:020000040000fa
:04031c00320a0000a1
:020000040000fa
:04032000320a00009d
:020000040000fa
:04032400320a000099
:020000040000fa
:04032800320a000095
:020000040000fa
:04032c00320a000091
:020000040000fa
:04033000320a00008d
:020000040000fa
:04033400320a000089
:020000040000fa
:04033800320a000085
:020000040000fa
:04033c00320a000081
:020000040000fa
:04034000320a00007d
:020000040000fa
:04034400320a000079
:020000040000fa
:100400004f9422000efb27000e0188000000000020
:10041000000020000000e000020032000001200087
:1004200020028800140007006c0707000000e000ad
:1004300003003a00c0e02300110020000200370052
:100440000000200001002000810f70000100320038
:1004500014000700000020000000e000020032004d
:1004600000000200000000000c95020001000000e6
:100470000040da000000fe004440a90000fe200019
:100480000000e0000300320000002000a00188000e
:100490004440a800000006008a1f78008b1f7800e7
:1004a0000000060091018800800478000000eb0045
:1004b0001a003700e284440032a0b4009905ba0063
:1004c000e284440032a0b4009906ba00e2844400f9
:1004d00032a0b4000006eb00476fde00fd07b2005b
:1004e000636ce10003003a00ebff07000000eb0043
:1004f0000a003700606ce10004003a00005deb0088
:100500008b05e900fdff3e00040037006168e10053
:10051000010032000086eb000b00070019c7ba008b
:100520001905ba000e04e00003003a000a00e000da
:10053000e0ff3a0000000600fe07b2009e018800be
:100540008a047800f5ff3700395dba008b05e900b1
:100550000c003200295dba008b05e900080032006a
:100560000c00e00003003a00e284440032a0b40032
:10057000f5ff370019ddba008b05e900faff3a00f4
:100580008904e800e184440032a0b40000000600c1
:100590002c51040001000000025104000100000081
:1005a0006a51040001000000ec0504000100000095
:1005b0002c06040001000000bc050400010000003e
:1005c0004a060400010000007e060400010000004d
:1005d000a606040001000000ce0604000100000091
:1005e00018080400010000005e080400010000007b
:1005f000a408040001000000ea0804000100000053
:100600007609040001000000300904000100000028
:10061000bc09040001000000520a040001000000af
:10062000020a040001000000980a04000100000012
:100630002a0a040001000000880a040001000000ea
:10064000003e0400010000008a2b040001000000ad
:10065000c46d040001000000ee8c040001000000e5
:100660004a68040001000000ac6a040001000000b8
:1006700058690400010000006869040001000000de
:100680007e69040001000000286a040001000000e7
:10069000c869040001000000046a040001000000b1
:1006a000106a040001000000386a04000100000024
:1006b0004c6a040001000000726a0400010000009e
:1006c000a06a040001000000666a04000100000046
:1006d000b26a040001000000e85a040001000000b2
:1006e0004e580400010000006c5904000100000095
:1006f000585a04000100000088590400010000005d
:100700009e59040001000000485a04000100000046
:10071000e859040001000000245a04000100000010
:10072000305a040001000000885a04000100000053
:10073000ae5a040001000000dc5a04000100000071
:10074000a25a040001000000ee5a0400010000005b
:100750009c8c040001000000f66b04000100000006
:1007600030810400010000006686040001000000e2
:10077000d2b2040000000000e0b10400000000005c
:10078000d4b4040000000000a8e40400000000004d
:10079000dee40400000000005ee30400000000004e
:1007a000bce3040000000000fae3040000000000c5
:1007b00054e404000000000082e204000000000095
:1007c000c4e20400000000001ee504000000000078
:1007d00088e5040000000000d4e5040000000000eb
:1007e0001ee6040000000000fae60400000000001d
:1007f00040e70400000000005ee604000000000086
:10080000a4e60400000000004ce804000000000022
:10081000b6e804000000000096e7040000000000b5
:1008200000e804000000000002e3040000000000f3
:1008300032e304000000000002e9040000000000b0
:1008400036e9040000000000624a040001000000d4
:100850006a4a0400010000009a4a040001000000f6
:10086000d84a0400010000001a4b040001000000f7
:10087000744b040001000000ba4b040001000000aa
:1008800028330400000000009c2d0400000000003c
:10089000d620040000000000ea320400000000003e
:1008a000aa1f0400000000003600f800809fbe0070
:1008b000829fbe00849fbe000600fa0021e1a800ce
:1008c0004400f8001041810020028800a05e220050
:1008d000104078000004e00002003a0000fe27000b
:1008e0000100370000fc2700000f78001e00780090
:1008f00010007800a02e89001e80e800100078000b
:10090000f02e89009e00780064804000100078007e
:10091000502e8900a05e22001040780080407800b0
:100920000104a200a05e2200014878008480a90092
:10093000b13f810000002100008060000000e00065
:100940000e003200b03f810000c0a100b03f89001e
:100950006000b800d02e8900e12e89006000b80048
:10096000202f8900312f89006000b800802e890077
:10097000912e89000000eb00402f8900d22e8100cb
:10098000e32e8100a02e8100cf80de000200400017
:1009900083804800d02e8900e12e8900222f81001b
:1009a000332f8100f02e8100cf80de000200400056
:1009b00083804800202f8900312f8900822e8100fa
:1009c000932e8100502e8100cf80de000200400077
:1009d00083804800802e8900912e8900402f81005d
:1009e0000000e800402f8900402f8100f30f5000e5
:1009f0002c003400402f81000000e000290034006a
:100a0000422f8100d42e8100e52e8100140798002a
:100a1000250798001e029000ae0290001100090008
:100a2000422ad800b02e8900422f8100242f810055
:100a3000352f810014079800250798001e029000aa
:100a4000ae02900011000900422ad800002f890050
:100a5000422f8100842e8100952e8100140798007a
:100a6000250798001e029000ae02900011000900b8
:100a7000422ad800602e89000000eb00402f890038
:100a80006000b800d02e8900e12e89006000b80017
:100a9000202f8900312f89006000b800802e890046
:100aa000912e89004400f9000080fa004f02be0038
:100ab0004f01be004f00be003600f90000400600a6
:100ac0003600f800809fbe00829fbe00849fbe005b
:100ad000869fbe000000fa0021e1a8004400f80053
:100ae00010418100200288008460a9009c8c0200d3
:100af000010000004400f9000080fa004f03be002e
:100b00004f02be004f01be004f00be003600f9008c
:100b100000400600801f78000000fa004400f80042
:100b200010418100200288001821ef00e03c810084
:100b30000000e800e03c89008780a9004400f9003b
:100b40000080fa004f007800004006003600f800f0
:100b5000809fbe00829fbe00849fbe00869fbe0015
:100b60000000fa0021e1a8004400f80010418100d3
:100b70002002880089e0a900f03c81000000e0002c
:100b800002003200f03c8100000001004400f90046
:100b90000080fa004f03be004f02be004f01be00ae
:100ba0004f00be003600f900004006003600f80095
:100bb000809fbe00829fbe00849fbe00869fbe00b5
:100bc0000000fa0021e1a8004400f8001041810073
:100bd000200288008a00a900003d81000000e0009a
:100be00002003200003d8100000001004400f900d5
:100bf0000080fa004f03be004f02be004f01be004e
:100c00004f00be003600f900004006003600f80034
:100c1000809fbe00829fbe00849fbe00869fbe0054
:100c20000400fa008b00a90021e1a8004400f800ac
:100c300010418100200288006016220010407800d8
:100c40000004e0001f0032000000eb00000f7800fd
:100c5000190037001e0078006600b9008000780097
:100c60006010220000804000100798001e009000d5
:100c700010407800e14f50000e003a001e00900036
:100c8000200090000000e0000a003a001e009000e2
:100c90008040eb00014878001e009000100090009a
:100ca0000000e000030032001e00900010009000e1
:100cb000000001001e0fe8001e007800ef0f50003a
:100cc000e4ff34004400f9000080fa004f03be0046
:100cd0004f02be004f01be004f00be003600f900bb
:100ce000004006003600f800809fbe00829fbe00d4
:100cf000849fbe00869fbe000400fa008860a900a1
:100d000021e1a8004400f800104181002002880081
:100d100060162200104078000004e0001f0032003e
:100d20000000eb00000f7800190037001e0078006b
:100d30006600b9008000780060102200008040004a
:100d4000100798001e00900010407800e14f5000fe
:100d50000e003a001e00900020009000e10f5000ad
:100d60000a003a001e0090008040eb000148780025
:100d70001e009000100090000000e0000300320010
:100d80001e00900010009000000001001e0fe800ff
:100d90001e007800ef0f5000e4ff34004400f9001b
:100da0000080fa004f03be004f02be004f01be009c
:100db0004f00be003600f900004006003600f80083
:100dc000809fbe00829fbe00849fbe00869fbe00a3
:100dd0000000fa0021e1a8004400f8001041810061
:100de000200288008620a900703e810000000100da
:100df0004400f9000080fa004f03be004f02be001d
:100e00004f01be004f00be003600f9000040060052
:100e10003600f800809fbe00829fbe00849fbe0007
:100e2000869fbe000000fa0021e1a8004400f800ff
:100e300010418100200288008a40a900703581009d
:100e4000000001004400f9000080fa004f03be00da
:100e50004f02be004f01be004f00be003600f90039
:100e6000004006003600f800809fbe00829fbe0052
:100e7000849fbe00869fbe000000fa008aa0a900e1
:100e800021e1a8004400f800104181002002880000
:100e900072810200010000004400f9000080fa00a5
:100ea0004f03be004f02be004f01be004f00be0008
:100eb0003600f900004006003600f800809fbe00b2
:100ec000829fbe00849fbe00869fbe000200fa0083
:100ed0008820a90021e1a8004400f8001041810009
:100ee00020028800603b81000000e0000a003a0018
:100ef00041138000010f78006822ef001e00780087
:100f000080407800a0762200014878001000200080
:100f1000603b89003c003700613b8100803b8100e1
:100f2000808f500020003d0041138000010f7800a9
:100f30006822ef001e0078004800de008040780044
:100f4000b076220001487800413b8100703b81006f
:100f50000000400000804000a1762200914078000f
:100f60008180fb004809dd00b176220091407800c5
:100f70008180fb0082807000010878001e007800ec
:100f800080407800a076220001487800603b810014
:100f90000000e800603b8900703b81000000e80031
:100fa000703b89001800370041138000010f780062
:100fb0001e0078004800de0080407800b0762200f5
:100fc00001487800413b8100703b810000004000f7
:100fd00000804000a1762200914078008180fb00d3
:100fe0004809dd00b1762200914078008180fb0045
:100ff0008280700001087800e922a8009820a900ea
:1010000030418100000001004400f9000080fa0036
:101010004f03be004f02be004f01be004f00be0096
:101020003600f900004006003600f800809fbe0040
:10103000829fbe00849fbe00869fbe000200fa0011
:101040008580a90021e1a8004400f800104181003a
:10105000200288000080eb00000f7800103d810026
:101060000000e0000700320080822200104078007b
:101070000004e00003003a00103d81000000010080
:10108000000f78001e007800e10f400004003200dd
:101090001e007800004078000080fb0020118800ce
:1010a0004400f9000080fa004f03be004f02be006a
:1010b0004f01be004f00be003600f90000400600a0
:1010c0003600f800809fbe00829fbe00849fbe0055
:1010d000869fbe000200fa008560a90021e1a800f9
:1010e0004400f80010418100200288000800370009
:1010f00030118000004f7800203d81000000e000aa
:1011000003003200213d81001e40780001000100f3
:1011100010118000610060000000e000f4ff3a0060
:101120002222a9004400f9000080fa004f03be000b
:101130004f02be004f01be004f00be003600f90056
:10114000004006003600f800809fbe00829fbe006f
:10115000849fbe00869fbe000200fa0087e0a900bf
:101160009111800000202000008060000000e0005d
:1011700018003a0021e1a8004400f8001041810065
:10118000200288000080eb00000f7800303d8100d5
:101190000000e0000700320080822200104078004a
:1011a0000004e00003003a00303d8100000001002f
:1011b000000f78001e007800e10f400004003200ac
:1011c0001e007800004078000080fb00a01188001d
:1011d0004400f9000080fa004f03be004f02be0039
:1011e0004f01be004f00be003600f900004006006f
:1011f0003600f800809fbe00829fbe00849fbe0024
:10120000869fbe000200fa0087c0a90021e1a80065
:101210004400f800104181002002880008003700d7
:10122000b0118000004f7800403d81000000e000d8
:1012300003003200413d81001e40780001000100a2
:1012400090118000610060000000e000f4ff3a00af
:101250003222a9004400f9000080fa004f03be00ca
:101260004f02be004f01be004f00be003600f90025
:10127000004006003600f800809fbe00829fbe003e
:10128000849fbe00869fbe000000fa0021e1a800f6
:101290004400f80010418100200288008500a90068
:1012a000ce7f0200010000004400f9000080fa0037
:1012b0004f03be004f02be004f01be004f00be00f4
:1012c0003600f900004006003600f800809fbe009e
:1012d000829fbe00849fbe00869fbe000000fa0071
:1012e0008020a900304080000000e80030408800e5
:1012f000ba950200010000000001be0010002000ad
:10130000a0960200010000000080fa004f03be001a
:101310004f02be004f01be004f00be003600f90074
:10132000004006003600f800809fbe00829fbe008d
:10133000849fbe00869fbe000000fa008060a90066
:10134000ba950200010000000001be00000120006b
:10135000a0960200010000000080fa004f03be00ca
:101360004f02be004f01be004f00be003600f90024
:10137000004006003600f800809fbe00829fbe003d
:10138000849fbe00869fbe000000fa008040a90036
:10139000ba950200010000000001be00800020009c
:1013a000a0960200010000000080fa004f03be007a
:1013b0004f02be004f01be004f00be003600f900d4
:1013c000004006003600f800809fbe00829fbe00ed
:1013d000849fbe00869fbe000000fa008080a900a6
:1013e000ba950200010000000001be0020002000ac
:1013f000a0960200010000000080fa004f03be002a
:101400004f02be004f01be004f00be003600f90083
:10141000004006003600f800809fbe00829fbe009c
:10142000849fbe00869fbe000000fa0080a0a90035
:10143000ba950200010000000001be000004200077
:10144000a0960200010000000080fa004f03be00d9
:101450004f02be004f01be004f00be003600f90033
:10146000004006000040da000000fe001200fa0012
:101470006007980071079800020f98000022200072
:1014800010079800202220002007980060222000ea
:101490003007980080222000400798006e009000de
:1014a00060004000e20f500041003e00b04181006a
:1014b000e20f500008003a000023200010079800b7
:1014c0002023200020079800602320003007980088
:1014d00080232000400798001e00900090007800b4
:1014e00000002800008060000000e00007003a00d3
:1014f0004e0090008000eb00010878001e00900074
:101500009000780001f0a000010878008e0890009b
:10151000010f78001c003700000a200050079800d7
:10152000030037005e0090000000e90050079800bb
:101530002e00900010007800610060000000e000c4
:1015400003003a005e0090000000e000f5ff3a0062
:101550002e00900010007800610060000000e000a4
:101560000d0032007e009000be00900091007800d7
:1015700081407800014878007e0090000000e8007b
:10158000700798001e0fe9001e0078000000e000c0
:10159000e1ff3a0001003700000000001e00780063
:1015a0008e08900000805000000f98000100370066
:1015b000000000000e0890000080fa000000060005
:1015c0001000fa0050079800610798007207980011
:1015d00000222000100798002022200020079800f9
:1015e0004022200030079800802220004007980009
:1015f0005e009000e30f500016003200e30f500031
:1016000003003c000000e00010003500030037003c
:10161000e40f5000110032000c003700b04181008f
:10162000e20f50000f003a0000232000100798003e
:101630002023200020079800402320003007980036
:101640008023200040079800070037000000eb00cf
:1016500033003700000000000300370000000000e6
:1016600001003700000000001e009000900078008c
:1016700000002800008060000000e00007003a0041
:101680004e0090008000eb00010878001e009000e2
:101690009000780001f0a000010878002e00900072
:1016a0009000780000402000008060000000e00012
:1016b00004003a002e0090009000780001a0a000e5
:1016c00001087800fe009000010f7800100037003c
:1016d000000000002e009000900078000010200014
:1016e000008060000000e000faff32006e00900011
:1016f000104078008000fb003e0090000108780058
:101700006e0090000000e800600798001e0fe900de
:101710001e0078000000e000edff3a007e0090001f
:101720000080fa00000006002002e20004003d00f4
:101730002342ab00020032002302ab00feff320066
:101740000040da00feff37000a00fa008001eb00db
:10175000b3bf9f00c0bf9f00d1bf9f00e2bf9f00eb
:101760000080eb00f0bf9f006a805700152407003f
:101770007fb89700e10f400002003a00910020007e
:10178000c14189000080fa00000006000a00fa004a
:1017900011002000b1bf9f00c0bf9f006a805700aa
:1017a0000a2407004fb897000080fa0000000600e6
:1017b000889fbe0080047800104281000000e00095
:1017c00005003a000000eb000e0007000084eb006b
:1017d0000000e00008003500184281000900e00028
:1017e0000500320009004400060007000000e00088
:1017f00001003d000084eb00080078004f04be00ab
:1018000000000600800078000100e00003003a00bc
:101810004084220010428900000005000080eb0097
:1018200042942200828f500002003e001142890043
:101830000000eb00000006000000df0000000600d2
:101840000080cf00000006002200f8002400f8000d
:101850002600f8000100b8000000e9004400f8008c
:10186000010f200021028800820078003800f80073
:101870003a00f8003c00f8003e00f8004000f80094
:101880000080080004000000b30278000500ca00d0
:10189000b40278000500c9003200cc004000f90015
:1018a0003e00f9003c00f9003a00f9003800f90068
:1018b000010078004400f9002600f9002400f90036
:1018c0002200f900000006002200f8002400f800c1
:1018d0002600f800889fbe008a9fbe008c9fbe0035
:1018e0004400f8000d0f20002d02880083067800c8
:1018f0000106e9008205e900818040000201410003
:101900000000e90024003500050578003800f800e3
:101910003a00f8003c00f8003e00f8004000f800f3
:101920000b80080014000000040478008a0478008a
:101930001201c3003800f8003a00f8003c00f8003b
:101940003e00f8004000f8000c8008000300000092
:1019500038037800990378001201c600828444009d
:101960004000f9003e00f9003c00f9003a00f9009f
:101970003800f9003300cd000a85e8004000f90086
:101980003e00f9003c00f9003a00f9003800f90087
:1019900001024200daff37000d0078004400f90030
:1019a0004f06be004f05be004f04be002600f900e2
:1019b0002400f9002200f900000006002200f800cf
:1019c0002400f8002600f8004400f800050f20006d
:1019d000250288000100b8000000e90082007800bc
:1019e0003800f8003a00f8003c00f8003e00f8002b
:1019f0004000f8000080080002000000b3027800f8
:101a00001301c0003200cd004000f9003e00f90093
:101a10003c00f9003a00f9003800f90001007800b4
:101a20004400f9002600f9002400f9002200f90022
:101a3000000006002200f8002400f8002600f8004c
:101a40002800f8002a00f8002c00f8000100b80077
:101a50000000e9004400f800010f20002102880086
:101a6000820078003800f8003a00f8003c00f800e6
:101a70003e00f8004000f80000800800050000006b
:101a8000b30278000500ca00b40278000580ca00dd
:101a90000030cb003200cc004000f9003e00f900dd
:101aa0003c00f9003a00f9003800f9000100780024
:101ab0004400f9002c00f9002a00f9002800f90080
:101ac0002600f9002400f9002200f90000000600b9
:101ad000820278000000e9000102e90081804000f4
:101ae0003800f8003a00f8003c00f8003e00f8002a
:101af0004000f80004800800110000000302780094
:101b00003800f8003a00f8003c00f8003e00f80009
:101b10004000f8000080080001000000141978005f
:101b2000010242004000f9003e00f9003c00f900cb
:101b30003a00f9003800f900000000008381e80055
:101b4000000000004000f9003e00f9003c00f900f0
:101b50003a00f9003800f90005007800000006009e
:101b60002200f8002400f8002600f8004400f800e5
:101b7000040f200024028800010278000000e90020
:101b80003800f8003a00f8003c00f8003e00f80089
:101b90004000f8000080080004000000b202780055
:101ba0000500ca00b30278000500c9003100cc006e
:101bb0004000f9003e00f9003c00f9003a00f9004d
:101bc0003800f900040078004400f9002600f9000c
:101bd0002400f9002200f900000006002200f800ad
:101be0002400f8002600f800889fbe008a1f7800b5
:101bf0004400f800070f200027028800821f7800a9
:101c00008103e9000005eb003800f8003a00f80015
:101c10003c00f8003e00f8004000f8000780080093
:101c20001400000003047800840478001201c3004b
:101c30003800f8003a00f8003c00f8003e00f800d8
:101c40004000f8000a80080002000000b802780096
:101c5000290378001201c4004000f9003e00f90099
:101c60003c00f9003a00f9003800f9003200cd00dc
:101c70000482e8000a05e8004000f9003e00f9008f
:101c80003c00f9003a00f9003800f9000482e9004c
:101c90008381e80001055000210034000a05e900b5
:101ca0003800f8003a00f8003c00f8003e00f80068
:101cb0004000f8000a8008001300000003047800c8
:101cc000840478001201c3003800f8003a00f800dc
:101cd0003c00f8003e00f8004000f80007800800d3
:101ce00002000000b8027800290378001201c40045
:101cf0004000f9003e00f9003c00f9003a00f9000c
:101d00003800f9003200cd008381e8004000f9007e
:101d10003e00f9003c00f9003a00f9003800f900f3
:101d20008703e900210035003800f8003a00f80088
:101d30003c00f8003e00f8004000f8000780080072
:101d40001400000003047800840478001201c3002a
:101d50003800f8003a00f8003c00f8003e00f800b7
:101d60004000f8000780080002000000b802780078
:101d7000290378001201c4004000f9003e00f90078
:101d80003c00f9003a00f9003800f9003200cd00bb
:101d90008381e8008703e9004000f9003e00f90074
:101da0003c00f9003a00f9003800f9004f007800d3
:101db0004400f9004f0578004f04be002600f900ea
:101dc0002400f9002200f900000006003600f800a7
:101dd000810178000000e90000800900b218780055
:101de000030078003600f900000006008403780044
:101df0008102e9008502d000050342008102d10082
:101e00008502e9003800f8003a00f8003c00f800cc
:101e10003e00f8004000f8000580080002000000c5
:101e20009602780017137800851b78004000f900af
:101e30003e00f9003c00f9003a00f9003800f900d2
:101e4000ee0d020000000000000006002200f80075
:101e50002400f8002600f8004400f800040f2000d9
:101e6000240288000000e9001201c3003800f800d5
:101e70003a00f8003c00f8003e00f8004000f8008e
:101e8000008008000200000031027800b2027800f1
:101e90001201c0004000f9003e00f9003c00f900ca
:101ea0003a00f9003800f9000000cd004400f900c4
:101eb0002600f9002400f9002200f90000000600c5
:101ec000b10278000009eb000002e90007003400cd
:101ed000b10178000328e10002003c008302780091
:101ee000040950000402e900f9ff3c0005007800f5
:101ef00000000600b10278000009eb000002e900d2
:101f000007003400b10178000328e1000200350029
:101f100083027800040950000402e900f9ff3c0044
:101f200005007800000006002200f8002400f800f8
:101f30002600f8004400f800040f20002402880066
:101f4000811f78000000e9003800f8003a00f8002e
:101f50003c00f8003e00f8004000f8000080080057
:101f60000300000032027800b30278001301c000c1
:101f70003100cd004000f9003e00f9003c00f900be
:101f80003a00f9003800f9004f0078004400f900e9
:101f90002600f9002400f9002200f90000000600e4
:101fa0002200f8002400f8002600f8004400f800a1
:101fb000030f200023028800810178000000e9005f
:101fc000040028001201c3003800f8003a00f800ad
:101fd0003c00f8003e00f8004000f80000800800d7
:101fe00003000000b20278001201c0003100cc00f2
:101ff0001201c3004000f9003e00f9003c00f90066
:102000003a00f9003800f900030078004400f900b4
:102010002600f9002400f9002200f9000000060063
:102020002200f8002400f8002600f8004400f80020
:10203000020f2000220288000000e9001201c30004
:102040003800f8003a00f8003c00f8003e00f800c4
:102050004000f80000800800010000003102780014
:102060001001f0004000f9003e00f9003c00f900ca
:102070003a00f9003800f9000000cd004400f900f2
:102080002600f9002400f9002200f90000000600f3
:102090002200f8002400f8002600f8004400f800b0
:1020a000040f200024028800811f78000000e9004e
:1020b000030278003800f8003a00f8003c00f8000d
:1020c0003e00f8004000f800008008000200000018
:1020d000b20278001301c0003100cd004000f900c9
:1020e0003e00f9003c00f9003a00f9003800f90020
:1020f0004f0078004400f9002600f9002400f900a0
:102100002200f900000006002200f8002400f80078
:102110002600f8002800f8002a00f8002c00f8003b
:102120004400f800040f2000240288000102780017
:102130000000e9003800f8003a00f8003c00f80020
:102140003e00f8004000f800008008000500000094
:10215000b20278000500ca00b30278000580ca0008
:102160000030cb003100cc004000f9003e00f90007
:102170003c00f9003a00f9003800f900040078004a
:102180004400f9002c00f9002a00f9002800f900a9
:102190002600f9002400f9002200f90000000600e2
:1021a0003600f800020378000002d0008102e90046
:1021b0008200780003017800e60e020000000000b3
:1021c000040040000100200005800900011878008b
:1021d000060078003600f900000006000000050047
:1021e000839f68000100e00002003d0060001000d5
:1021f000e08018000300e00002003d0060011100d3
:10220000e08119006e0007004f00e00002003b0073
:1022100060001000e080180000000600140020009c
:10222000d1043700f4ff2f00cf0437000001be00b7
:102230003f0007000470a70003f0a1006509b1008a
:10224000160032000d0035006828e1000600350058
:10225000f0ff2f00f1ff27000300e00013003b0018
:1022600001002800000005000000400081804800b7
:102270008502e900fcff3a0008003700f88f4200b1
:1022800002003c008000eb00000005008100d1004e
:102290000080d3008502e800fcff3a000300e00064
:1022a00002003b0060001000e08018000000060003
:1022b0000001be001e0007000470a70003f0a1008b
:1022c00003f8a30013003a006509b10010003200c2
:1022d000090035006928e1000200350001002800ee
:1022e0000000050000004000818048008502e900f0
:1022f000fcff3a0000000600f88f420005003500a0
:102300008100d1000080d3008502e800fcff3a0084
:10231000000006008000eb00000005004f89de0091
:1023200082017800ab0437006011b800b9043700af
:10233000c70ade00f107b200f50fb2000800320054
:10234000e1cf4200020032000170a000240005002d
:10235000810f7000010032000408050044000500f0
:10236000810f700002003a00140005008502e900a8
:102370000000400081c04800fcff3b000170a0004d
:1023800024000500811f78000100e00002003d00ec
:1023900060001000e08018000300e00002003d0033
:1023a00060011100e0811900150007004f00e000f6
:1023b00002003b0060001000e080180000000600f2
:1023c0006022b800060220000000d0008180d20008
:1023d0000482d2008582d2000000a00002025200d6
:1023e00083825a00030031000202420083824a00c5
:1023f0000000a1000603e900f3ff3a000000060018
:10240000efff07000400be000000060007f82700e9
:10241000078361000638e10004003a00f707200056
:10242000878361008703710001003a0003f0a20076
:10243000889fbe008a9fbe008c9fbe00470ade00b8
:102440000480a100c71ade000580a1000700280053
:102450000785600087856100f70f20000720e100f5
:102460009e0032000728e1009c003200010678003f
:102470000400e000b4003200f7072000878060000d
:102480000170a0000500e000c0003200f707200046
:10249000878161000370a000050652000f003a001a
:1024a0000b50e1000b0032000308e10002003a008b
:1024b0000200e1007e0032000204500083845800d4
:1024c000040031000001fd008101fd008402fd00d7
:1024d0008a05fd006044b800210037000520e100b6
:1024e00005003d000001fd008101fd008402fd00aa
:1024f0008a05fd00050652007a60e10005003500fe
:102500000170a1004722dd00848070008a80700085
:10251000630037006044b800ef02660007ff2f0039
:10252000070666000500e00006003400f083120094
:102530008714dd000511de00071bdd0006017100b8
:102540008519de007060e10005003500090478009f
:1025500082047800030178008001eb0070065600c9
:102560000b50e10003003a00020040008380480065
:102570000400370060041400e0841c0002005800ce
:10258000838058000188a300060032008100d1003a
:102590000080d3008984d3000884d3000402e800bb
:1025a000270037000178a30025003a000100e00071
:1025b000030032008186cf00698656000a0037008a
:1025c0008c0020000000e00004003a0009007800c0
:1025d000880478000004eb00700252008086cf006f
:1025e0000d0646000c06e9007060e10006003500ab
:1025f0008000780009007800880478000004eb006f
:1026000070065600700252000c00e0000c0034000e
:102610008c08dd00f00316000703de0086807000e2
:102620000c00dd00074bde00060070008c4cdd0066
:102630000743de00868474000c44dd000c02520067
:102640006120e100200035006101600007002800e2
:1026500087816400f7ff2700878364000703740005
:102660000300e00006003200820373000400320021
:102670000000e800e08048000188a3000e003a0056
:10268000f70f20000720e1004a003d000170a10083
:102690004722dd00810072008a8070000000be00c9
:1026a0004f06be004f05be004f04be0000000600ee
:1026b0006000b800faff37008100d1000080d3002d
:1026c0000402e800eeff370004017800890174007d
:1026d000a10107008a807000f1ff3700f7010700b1
:1026e000070278000001fd008101fd00f3010700f1
:1026f00087027800850372000778a3000400320087
:102700000001fd008101fd0006020700e4ff370023
:10271000850362000768a300080032000b50e10047
:1027200003003200f0ff2f00f1ff2700dcff37002d
:102730000001fd008101fd00d9ff37000468a300fe
:10274000d7ff3200faff3700f8ff270088836000c8
:102750000b003a000000e00009003a008303640027
:1027600082837300020032000200be00ccff3700fb
:102770000b50e100ceff3a000200be00c8ff370058
:1027800014002000810064003eff3700f8ff27009e
:102790008883610004003a000200e00002003a0071
:1027a0008c007800beff3700150020008301640014
:1027b00039ff370001f82700000020008100750074
:1027c000b7ff3700889fbe008a9fbe008c9fbe0067
:1027d0001b0020000202be000586680006002800db
:1027e000060666004709de00f20fb20082003200e2
:1027f0000243e80080003200c729de00f30fb20078
:102800007d0032000343e8007b003200f107b20094
:102810000170a000f507b2000570a000c708dd0038
:102820004903de00868070004700dd00c72add0016
:102830004923de00868272004722dd000305510035
:10284000040350008583580003003100000040005d
:10285000818048000a05e9008c1f78008a9fbe002d
:1028600004005000858058000402420085824a001e
:1028700000004000818048000005eb000004be001d
:102880006033b8000406be000d48e1005600310078
:10289000110009004dccd8000c01b8000d02b800a1
:1028a0008481410060824a008283530003045c00fb
:1028b00084845c0060055d000a00e00025003a00a9
:1028c000800578000d40e100490031008800780063
:1028d00007007800110009004d88d8000c01b800ed
:1028e0000d02b8008481410060824a00600311003b
:1028f00083835b0004045c00e0845c000900e0006a
:1029000021003a004f01be000300e0002b0032001e
:10291000e3016000070673008c8171000100320042
:10292000640070004200de004e5edd000c007000ae
:10293000c258de0001e0a00083010700cf0178004b
:10294000818071004f06be004f05be004f04be00df
:10295000000006008c8343000d044c00e0844c0012
:1029600060054d000000e9000a00e000d4ff3200dd
:102970008c8343000d044c00e0844c0060054d0046
:102980000000e900ceff37000c0343008d834b00ad
:1029900060044c00e0844c000000e9000900e00005
:1029a000d8ff32000c0343008d834b0060044c00c1
:1029b000e0844c000000e900d2ff37004200de0056
:1029c0004e5edd000c007000c258de0001e0a00089
:1029d000cf0178000300e000daff32006000100051
:1029e000e0801800d7ff3700f0ff2f00aaff370064
:1029f000f0ff2f00b9ff37000404be002f010700cd
:102a0000870678000004fd008104fd002b0107000b
:102a1000078366000678a300030032000960a70060
:102a20000800be002c0037000d78a3000200320021
:102a30000800be00280037000778a30026003a00ef
:102a400001f0a10009f0a1000668a3000300320014
:102a5000f1ff2700f0ff2f00baff37000d68a30039
:102a6000030032000800be008c807000b5ff370004
:102a70000768a30007003a000648a30003003200dd
:102a8000f1ff2700f0ff2f00aeff37000d48a30035
:102a9000030032006000b8008c807000a9ff37008e
:102aa0000748a3000400320001f8270000002000be
:102ab0008c807000a3ff3700760107000004fd0042
:102ac0008104fd0002057800720107000802be00c3
:102ad0008a01780059ff37000160a000120220002f
:102ae0004240880097ff37000100e00012003200ea
:102af0000500e00010003200889fbe008a9fbe00e3
:102b00008c9fbe000006eb0001f8a300030032001a
:102b100060001000e08018000cf0a00005f8a30091
:102b20000300320060021200e0821a000cf0a200e2
:102b30008005eb0041ff37006000b800020005008f
:102b4000038368000700280007036300470ade00cc
:102b50000480a100c71ade000580a100f70f200045
:102b60000720e100420032000728e1004000320067
:102b7000889fbe008a9fbe008c1f7800f107b200bc
:102b8000f307b2000400e000640032000170a0000e
:102b90000500e000680032000370a00085054200d7
:102ba000eb07b1000204b8000302b80084844400bb
:102bb00060854a00020ab800848444000a854a00fd
:102bc000030ab80004054500040033000804d000df
:102bd0008984d2000a85d2008b05e9006158e100a2
:102be0003d003500021020000901610003082000ab
:102bf00089816100f70720008783640008867300dd
:102c0000c84cde00c853dd00878474004855de00e0
:102c10000300e00006003200820376000400320068
:102c20008904e80060054d000a88a3000c003a0002
:102c3000f70f20000758e10044003d000a70a10092
:102c4000c75ddd000a8575008a0073000900780001
:102c50004f0678004f05be004f04be00000006007e
:102c60000a05d1008984d3008b05e800f0ff370006
:102c7000881f78000604780090000700070278009b
:102c80000001fd008101fd008c0007008702780033
:102c9000850372000778a300050032000001fd00e3
:102ca0008101fd009f0007004f047800000006002e
:102cb000850372000748a30003003200f0ff2f00d5
:102cc000f1ff2700f8ff37000000200001f827007f
:102cd00088807000f4ff3700880178004848dd00e4
:102ce000808171004848de00c850dd00010070009e
:102cf000c850de00060478000b01780016000700bb
:102d000088807000d2ff37000500e0000500320027
:102d1000170020003a0007009dff37008103700074
:102d2000f9ff3a00860078004f0678004f05be0094
:102d30004f04be000000050083037100f9ff32005c
:102d4000270020002e00070094ff370001f827001d
:102d500086807000f4ff37000100e000260032009a
:102d6000610111007810e10023003c006022b800ee
:102d70007010e10004003500800278000100780046
:102d80008000eb00700151000200e00009003400f7
:102d900070031100062add00822ade008603dd00b2
:102da000878272000200de00860bdd0007007000e3
:102db0008208de0084817100f4ff27000482620033
:102dc0008481710004002800848262006102600036
:102dd00005f0a60000000600048271000700320022
:102de0000000e800e0804800000006000002be008d
:102df0006000b800efff37006000b8000000060078
:102e0000889fbe000004eb006138e10016003a0024
:102e10000100e00008003a00c800de004800dd00c4
:102e2000880020000100e00003003a00c800de0036
:102e30004800dd00680444008184cf00e984540028
:102e4000060034008908dd00f08314008703de00eb
:102e5000878070000900dd0009044400610214004d
:102e60004f04be00000006000300e00008003a0026
:102e7000c811de004811dd00880020000300e000da
:102e800003003a00c811de004811dd006804440068
:102e90008384cf00e9845400060034008919dd00e2
:102ea000f08314008713de00878171000911dd00b3
:102eb00009044400e1021400e9ff37002700200064
:102ec00001f0a70017002000470bde00f60fb2004c
:102ed000040032000643e8000a0032004702b30053
:102ee0000000060001037800f607b2000603700038
:102ef00002003a000703b300000006008702b30097
:102f00000000060001037800f607b2000603700017
:102f1000020032000770a000000006000760a00059
:102f2000000006000478a300040032000578a30026
:102f3000030032000168a30001003a000200be0055
:102f40000160a0000000060081017000270032002f
:102f50008002eb0001f8a3000300320060001000c3
:102f6000e080180015002000f40720000202420053
:102f700020003400f70320008703600006042000cf
:102f80000003630002082000000161004700de002a
:102f9000c909dd0000807100c708de000600e000fe
:102fa0000800320087037100060032001000b000f4
:102fb0000180b0000188a30002003200c108de00d9
:102fc0000402e800f107b200f30f20000320e10043
:102fd00003003d004722dd00810072002900370018
:102fe00001f827000000eb00260037006000b80061
:102ff00000000600680212007f20e1000200340099
:103000006000b8001f0037006011b8007020e100b8
:103010000400350080017800010078008000eb009a
:10302000700252000400e00009003400f0031200b6
:103030000719dd008419de000703dd0086817100b9
:103040000400de00070bdd00060070008408de00cf
:10305000f7ff2700838363008703710006002800c1
:1030600003036300070032000700e00003003a009a
:103070006101600002817300020032001000b000a4
:103080000180b0000500a6000000060001f0a000cd
:10309000000006004f0ade004709de00f107b2001b
:1030a000f20fb2000b003200f207b1000170a00075
:1030b000c708dd00c901de00838070004700dd0025
:1030c0000400a6000000060060001000e080180068
:1030d00000000600810f700001003a0000000600a9
:1030e0008182cf000500e00010003e008082cf000a
:1030f000ee8242007028e1000400390007003e0023
:10310000800078000000eb000e0037007083120092
:103110008600de000500dd000a00370070835200e3
:103120008600dd000000eb0006003700e28252005e
:103130008508dd00708312000603de0086807000c3
:103140000500dd007507b0000501ea000400a600d7
:103150000000060060001000e0801800000006007b
:10316000889fbe008a9fbe0030044200b0844a009f
:1031700030054b0090854b006000b1000898be0000
:103180000a90be000440e10005c8e10006d0e1005d
:1031900007d8e10002003100680040001008e80094
:1031a0004f05be004f04be0000000600889fbe0011
:1031b0008a9fbe003004be002005be0004185400e3
:1031c00005985c0006185d0007985d00110020005e
:1031d0000440e10005c8e10006d0e10007d8e100a5
:1031e000010039008000eb00108810004f05be0080
:1031f0004f04be00000006001200fa00889fbe00c7
:103200008a9fbe008c9fbe00e0b79f00f1b79f0071
:1032100082bf9f0093bf9f000605be000404be004e
:103220000000eb00d0b79f00c0b79f00b0b79f0071
:10323000a0b79f0090b79f00000678005fb197008d
:10324000cfb09700820141003fb097000200e0003c
:1032500004003d00370007007e805700c0ff0700d4
:1032600003003700330007007e805700cfff0700c0
:10327000dfb697000d00e0000c0035006fb297003c
:10328000ffb297000fbb97009fbb97001000200074
:10329000010020006011b8000002720081827200fb
:1032a00002037300838373001b0007000c06e80011
:1032b00001042000810f5600e0ff3a000d00e000fd
:1032c00004003d000802be000a03be007e805700d5
:1032d000a3ff07005fa897000000e00005003a0088
:1032e0001fb29700afb297003fb39700cfb39700dc
:1032f000090007006fb09700ffb097000fb9970063
:103300009fb997004f06be004f05be004f04be0098
:103310000080fa000000060001000700000006001f
:10332000a4b79f00b5b79f00c6b79f00d7b79f004f
:10333000000006004f09de0082817100b3b79f00d4
:103340004f01de008180400082807000a1b79f00a5
:103350008fb097004f09de000000400002007000af
:1033600090b79f007fa897004f01de00818040004a
:103370008280700081b79f000d0007004f3ade0089
:103380000000400004007000f0af9f00080007003c
:103390000402420085824a0006034b0087834b00eb
:1033a000dfff07000802be000a03be00000006009f
:1033b0002fb29700bfb297004fb39700dfb39700cb
:1033c00000000600881f780018002000881f780081
:1033d00089ff07008f87e9004f047800000006008e
:1033e000801feb0084ff07008f87e90000000600c4
:1033f000889fbe008a9fbe00e00f5000e08f5800fb
:10340000e00f5900e08f59000c003d006044b80007
:103410006055b8000000540081805c0002015d002e
:1034200083815d00180020001500070008003d00a2
:10343000180007000004eb00050037000004eb0053
:103440000f00070002003d001200070018002000d6
:10345000dcff07000800e000060032006022b80030
:103460006033b8000000520081805a0002015b0006
:1034700083815b004f05be004f04be0000000600c4
:10348000e00f5200e08f5a00e00f5b00e08f5b001e
:10349000000006006044b8006055b8000402540003
:1034a00085825c0006035d0087835d0000000600e6
:1034b000889fbe008a9fbe008c1f7800e00f5000de
:1034c000e08f5800e00f5900e08f59000d003d00db
:1034d0006044b8006055b8000000540081805c0072
:1034e00002015d0083815d001c0020000820e100d6
:1034f00009a8e1000ab0e1000bb8e1000d003d00b1
:10350000080037000006eb00e00f5200e08f5a0081
:10351000e00f5b00e08f5b0006003d006044b800f8
:103520006055b8000402540085825c0006035d000b
:1035300087835d00aaff07000c00e0000600320050
:103540006022b8006033b8000000520081805a0049
:1035500002015b0083815b004f0678004f05be00cf
:103560004f04be0000000600889fbe008a9fbe0078
:10357000841f78007c0007004f00780011003300a2
:10358000f0ff2f00838f6c0006003b0004056500f0
:103590000a00a7000800370009f0a600100020006c
:1035a00008003700820f5400838f5c00030039004d
:1035b0001000200001003e000000200009f0a700dc
:1035c0000000ea004f05be004f04be000000e0000e
:1035d00000000600881f7800030478000300e00064
:1035e00007003d0060001000e08018006001190035
:1035f000e081190002003b0001f02d0003003700bc
:103600000400070008f0a70001f0a0004f047800b4
:1036100000000600889fbe008a9fbe0000827000e6
:103620000402710004827100260032000004be0012
:103630000200be006011b8006b0920009502200056
:103640000182cf000a0039000541b1000082cf009d
:10365000070039000541b1000982cf00040039009c
:103660000541b1000882cf00010039000541b100d9
:1036700005425200120032000a003b0082817100b4
:10368000610164008100d1000080d3008984d300ef
:103690000884d3008b05e8000442e800f7ff3a00f5
:1036a000070037000804440089844c0000004800eb
:1036b000818048008b05e9000442e900f9ff3a00e7
:1036c000030007004f05be004f04be0000000600c7
:1036d00081002000618055000b003d000b002000a0
:1036e00061fe2f000100e1001d00340082817100a5
:1036f000610164008904d1000884d3000000e8005f
:10370000faff3a00710020006100640003007000bd
:10371000020060000900320061044400e0844c00b3
:103720000988a500050032008b05e8006808e10063
:1037300002003a008904d1000884d300f20f20006f
:103740000258e10005003d00c75ddd00f907b20049
:103750008980750008007800000006000bf827003b
:103760008b007800000005000004be00f0fa07009e
:103770000003be000405be000200be00ecfa070014
:10378000844f7500000006000400fa00889fbe0008
:103790008a9fbe000004be004709de00030020002f
:1037a000f20fb200f207b100f60f510030003c00fa
:1037b0000200e0001c003500faff2f00fb0720008c
:1037c0000201e900030033008b85d1000a85d30094
:1037d000fbff37008b8164000a016000e00f51009d
:1037e000e08f5900220032000200200003b82700b9
:1037f0000ffb0700a0bf9f00b1bf9f00e00f540068
:10380000e08f5c0002003d000a0444008b844c0001
:103810000a85ea008b85ea008b8064000a00640058
:103820000004be00110037000200200003b827008a
:10383000fffa0700a0bf9f00b1bf9f00e00f540038
:10384000e08f5c00020035006044b80007003700dc
:103850000800440089804c00e00f5000e08f5800c1
:10386000020032000800200009f82b000800be000a
:103870004f05be004f04be000080fa0000000600a5
:10388000889fbe008a9fbe008c9fbe000004be00c1
:103890000400200005f827008583600004037800f9
:1038a000840f5300858f5b0007003a000801be00bb
:1038b0000800be00a2fc07000001be000800be0018
:1038c000dbfa070010003700e00f5000e08f5800cf
:1038d0000f003c008101780003f0a1000001780096
:1038e000e00f5100e08f59006a0032001002200002
:1038f000c04189000801be000800be00c3fa0700ed
:103900000001be00affb07000004be0061003700ed
:10391000478cde00cf8cde00e00f5400e08f5c00af
:103920000f003a006044b800040037000000400077
:103930008180480061044400e0844c0004002000c1
:10394000050820008181620004017800e00f510029
:10395000e08f5900f5ff320061041400e0841c0080
:10396000f807b1000980b10081017800f307b200c7
:10397000000178000200be000170a0000808a3004a
:103980000200320000004000818048008984d1009c
:103990000884d3000000400081804800940120008a
:1039a00002002000031020006055b8006066b800d7
:1039b0000c0341008d834900800f5300818f5b0011
:1039c00006003c00060641008786490006005000bc
:1039d000878058000a0541008b854900000040009f
:1039e000818048008301d1000281d3000402e900f4
:1039f000efff3a00e00f5000e08f58001b0032004c
:103a00000226240023da20000000200001f8230011
:103a10007efa07000200200003f8230001fa0700e5
:103a20000000e000110035000226240023da200007
:103a30000000200001f823007dfa070002002000aa
:103a400003f82300f7f907000000e000030034004a
:103a500062054500e0854d00040037006000b800b5
:103a6000610065000005450081854d00c744dd000b
:103a7000080020000000200001f02300080440009e
:103a8000898448008b85d1000a85d300080445004d
:103a900089844d000800be004f06be004f05be00e1
:103aa0004f04be00000006000000fa0068815700c5
:103ab000cfb89700101a810010007800f9070700ae
:103ac0000080fa00000006004103070075060700a9
:103ad000a9060700250707004d0707009308070000
:103ae0003e0837000000fa0068815700cfb8970001
:103af000101a810010007800ea0707000080fa0021
:103b000000000600320307006606070017070700db
:103b10003f07070098060700840807002f083700b2
:103b20000000fa0068815700cfb89700101a810092
:103b300010007800db0707000080fa000000060094
:103b40008d0637000000fa0068815700cfb8970053
:103b5000e20707000080fa00000006001c030700cf
:103b6000750307004f060700000707002807070036
:103b700081060700fa0707006c08070017083700de
:103b80000000fa0068815700cfb89700d3070700fc
:103b90000080fa00000006000d0307004106070040
:103ba000f20607001a070700730607005f08070000
:103bb0000a0837000000fa0068815700cfb8970064
:103bc000c60707000080fa00000006005a0307003d
:103bd000e3073700821f7800831f7800811f780079
:103be000801f7800605a2200801f78000018810032
:103bf00010007800820007000000eb004c00070076
:103c0000ca0a07008000780010002000020220008d
:103c1000828f500004003200e9805000e48f500091
:103c2000010036000000eb0000000600889fbe0087
:103c30008a9fbe00000578008a0478001944780045
:103c40000905e8000800fb00eeff07000000e000a7
:103c5000f9ff3a00b0c2b300804f540004003200b4
:103c6000d0c2b300804f540006003a000200370073
:103c70000004eb0001003700180020008904e80070
:103c8000010037000004eb006000b80006003700b8
:103c9000a200200003002000581b0700cfd5de0043
:103ca0000a0050008b8058003905fb000a03b10060
:103cb000e90f5500f6ff36000800e00002003a0068
:103cc00060001000e08018004f05be004f04be00e9
:103cd000000006000000050000000600889fbe00ee
:103ce000000478008004eb000800e0000b003200c4
:103cf0000800780055170700110020000800780020
:103d0000f4ff070080047800180090000008a3006a
:103d100002003a00080078008e00070009007800d1
:103d20004f04be0000000600000005000000050072
:103d3000881f78000000e0000a003a00201a810085
:103d40000004eb000000e00003003200201a8100b4
:103d5000f7ff0700000478004d170700000074000b
:103d6000020037008000eb00daff07004f04780004
:103d700000000600889fbe008a1f7800800478003b
:103d8000010478009800fb00e08022001501070084
:103d90000000e00004003a0060012000c0418900fa
:103da0000005eb0012003700080078005a020700f7
:103db000621b2000800078000900780062f607008e
:103dc000800478000005eb000900e00008003500e1
:103dd00088007800090078002102070000057800bb
:103de0000a00e00002003a000900780067f60700c8
:103df0000a0078004f0578004f04be00000006005e
:103e00000000fa0068815700cfb89700d101070081
:103e10000080fa000000060010007800e8f5370086
:103e2000889fbe008a9fbe0081047800020478004b
:103e300009c5b9000900e00001003a000004eb00e8
:103e40000a0178008000780003007800f2ff070084
:103e5000800078008a8f50000300320011000900b2
:103e60008980d80000047800080078004f05be0063
:103e70004f04be0000000600e54181000001eb0098
:103e80000500e00031003200050178008001eb0000
:103e90000302780083007800020037008201780076
:103ea0000601780012037800800f530009003a00e1
:103eb0000300e0000300320012009000900198001f
:103ec0000200370012009000e04189000281e80002
:103ed0001e003700800f5300060036000100e0008e
:103ee00002003200910f1300020036000302780036
:103ef00082007800120390000600e000e7ff3a001d
:103f00000001eb000100e000100032001101900000
:103f100011031000e40f5300060036008101780001
:103f200080197800008041000688e900120098009e
:103f300000017800818f520002003a00e2418900be
:103f400001003700120298000181e80002007800a9
:103f5000000006000000e000180032000081e900c7
:103f6000e14181000100e00012003200920178007e
:103f700003024000848f500006003a0011029000b6
:103f800004087800918141000389e800e24189003a
:103f900000000600110278008482e800858240005b
:103fa000850f510003003a00848141008388e800b6
:103fb0000000060001087800e241890000000600c8
:103fc0008001780002003700b15978000201e90051
:103fd0000200e000fcff3a0000000600889fbe00df
:103fe0008a9fbe00800478000200e0005b0032007f
:103ff00001407800814c780082814400f1f99f00f3
:10400000e20f51005500360091449800a1449800f9
:10401000e1f99f00d1f99f00e60f51004f003600f3
:10402000b1449800c1f99f00e80f51004b003600e1
:104030000905ea00630565000a8444000a05510089
:10404000c1ff2f00010565000080fb008000eb0030
:104050001210200013102000681a0700008cbe0008
:104060000a01440060b99f0071b99f00e80f550034
:104070003a0036002004980031049800400498006b
:104080005104980020b99f0031b99f0040b99f00aa
:1040900051b99f00f80f55003000360060049800b9
:1040a00071049800000c9800110c9800200c9800e6
:1040b000310c9800400c9800510c980020b19f00e2
:1040c00031b19f0040b19f0051b19f0060b19f008e
:1040d00071b19f0000b99f0011b99f006401640095
:1040e0007801410002044400020555006011b80047
:1040f0000203be000002be000403be006022b8003e
:1041000000007200818072000201730083817300dd
:1041100010003700009cbe000294be0040049800ce
:10412000510498006204980073049800000c9800f1
:10413000110c9800220c9800330c9800400c980049
:10414000510c9800620c9800730c98000a02b100a0
:104150000802b000ff0f5500eeff3e000900780096
:104160004f05be004f04be0000000600111a81007a
:104170009100780030153700111a81009100780005
:104180008f120700110020000000e000050035003c
:10419000101a810090007800a0002000261507006a
:1041a000cf00de000100ea0000000600000006006b
:1041b0006030220000000600fdff07002018890083
:1041c000101889000000060000000600803422005c
:1041d00000000600fdff0700301a8900201a890040
:1041e00000000600881f780001047800880078002d
:1041f00005000700904f1400010032000000eb00a2
:104200004f04780000000600881f78000004780042
:104210008180fb000a003a000800780031000700a6
:1042200000004400220037001804e00020003200a3
:104230000804e8001081fb00810f51001c003200cf
:10424000080078000808a300f7ff3a0014102000c7
:10425000048ab9000801780038007800f5ef2f00d3
:10426000808242008081ea00838262000308280085
:104270008382620007003a0000006a00f5ef2f0019
:10428000808242000080ea000080620083016000ba
:10429000f0ff3200020078001204e0000400320057
:1042a0000201e8009081fb00818f5100f9ff3a0084
:1042b0004f047800000006008101780000027800b9
:1042c00030417800b14f510002003a000204e00092
:1042d000f9ff3a009480fb001380fb00008050003f
:1042e0000000060080007800040037003104e00080
:1042f00002003a00000051000000060001017800b1
:104300000108a300f9ff3a0081017800310178002b
:10431000f4ef2f00020242000281ea000201620073
:104320000408280004016100f7ff320083007800d0
:10433000010178003104e000fdff3a000000510067
:1043400000000600881f780000047800080078004c
:1043500077150700080078004f0478000000060079
:104360003c00fa00889fbe008a9fbe000004be0089
:10437000020578000f0078004004b1001d0009001c
:104380000018eb0088a79f00d8af9f000080eb00cb
:10439000e0af9f006022b8006033b800c0fb2f0080
:1043a0000f004000a5140700120020008a007800ca
:1043b000c0fb2f000f004000eb1007006fb297000a
:1043c000ffb297000fbb97009fbb9700dfad970030
:1043d0000fa597000900e000090032000a8555008a
:1043e000cfd5de000402450085824d0006834d00d6
:1043f00087834d000100320004044400880c7800db
:104400004f05be004f04be000080fa000000060009
:104410000001eb00d2ff07004d1937001200200009
:10442000cfff07004a19370022002000ccff3700d9
:104430004400fa00889fbe008a1f78000004be0076
:104440000205780094bf9f00a5bf9f00b6bf9f00e4
:10445000c7bf9f000000eb00c09f9f00a8af9f0058
:10446000d89f9f000080eb00b0af9f006022b80093
:104470006033b80060fb2f000f0040006f1407008e
:104480001fba9700afba97003fbb9700cfbb97000a
:10449000120020008a00780060fb2f000f0040000f
:1044a000e51107000900e000060032003fb2970066
:1044b000afaa970004824200df9a970005025200db
:1044c000840c44004f0578004f04be000080fa00c1
:1044d00000000600f4ff2f00f5ff2f000403be00cc
:1044e000d3ff37006022b800060020000700280034
:1044f000cfff3700f4ff2f00f5ff2f006033b80027
:10450000cbff370004002000050028006033b8000e
:10451000c7ff3700f3ff3700eeff3700f1fb2f0036
:1045200080804000f98f500001003e000050a00044
:1045300000000600f9ff3700f1f92f0080804000ed
:10454000f98f500001003e00f005b20000000600a7
:10455000f9ff37000200fa00881f78000004780095
:10456000e2bf9f006481570008007800f907070048
:10457000980090000148a300010032000080eb0089
:104580004f0478000080fa00000006000f04b0001d
:104590008e1f780002027800030178000000e0001e
:1045a0000200320000077800020037000efc2f00e6
:1045b0000f0747008002eb000100e000010032001d
:1045c0008102e9000f007800e003b1001d0009003e
:1045d0000018eb000080eb0090a79f002310200044
:1045e000a3a79f00bea79f00c1a79f00d5a79f00bc
:1045f0000100e00003003d00b1042000c14189003a
:1046000007003700004feb00fea79f00eea79f00ba
:104610008400780020fc2f000f004000cdff070031
:104620004f0778000f04b10000000600881f7800d3
:104630004001200099130700000478000800e00002
:1046400004003200420120008000eb0008007800e6
:1046500062fe0700080078004f04780000000600a2
:10466000889fbe008a1f78000005780081047800ca
:104670009900fb0020812200dafe07000000e00024
:1046800004003a0060012000c04189000000eb00f6
:104690001e003700e5ff0700000478000000eb0073
:1046a0000800e00019003200b10220000900780083
:1046b000ccfe07000000e00006003a0020002000c9
:1046c00021c7b30099cf100001003a00400020003c
:1046d0001004980010c6b300994f100003003a0070
:1046e000180090000060a000100498000a0c7800e8
:1046f000780090000000e00002003a00a02e2300a5
:104700007004980008007800ad1307004f0578008a
:104710004f04be0000000600889fbe008a1f78007c
:1047200000057800b10220000a007800adfe070005
:1047300028002000090020000000e00006003a00e8
:1047400028c7b3001a446c000884fb000804ea0080
:104750004f44de00cfc4de00810720000a0078004d
:10476000a0fe07000000e0000100320008a0a00049
:10477000510620000a0078009afe07000000e000c1
:10478000010032000930a0001a40780021c7b300b0
:10479000814f50000a0032000880a00071c7b300aa
:1047a000814f500002003a000890a000040037003a
:1047b00011c6b300814f500001003a000830a0003c
:1047c0000800be004f0578004f04be000000060040
:1047d000ec874700889fbe008a9fbe008c9fbe006a
:1047e0008e1f7800000678000104780018079000fa
:1047f0002805900098067800cdb79f00b805900076
:104800003202be002203be000400be000601be004c
:104810004f18de006011b8008000eb00d0b79f0099
:10482000e1b79f00f2b79f0083bf9f00800478002c
:104830000900e000060032006000b8006011b80016
:1048400004025000858258000603590087835900ee
:104850000e00e000020035000d10a100cdb79f0052
:104860000900e00005003a004fb097000028a300bf
:1048700002003a000038a300020032008a00e9007a
:10488000010037008a007800f8815700a20020005c
:1048900008007800620307000900e00003003a0006
:1048a000cfb097000128a300080032000000e90003
:1048b00000814500b1c2b3000900e00001003200f0
:1048c000d1c2b30001497800050037000138a300c8
:1048d000030032000000e90001c2b30081757800d6
:1048e000480190000201e90000015100808045006c
:1048f0004fb297008a0178000c0078005605070037
:104900009c0090000188a3000400320098009000f1
:10491000810f500001003d00010078004f07780032
:104920004f06be004f05be004f04be00cf00b100d1
:1049300000000600000006004200fa00889fbe004a
:104940008a9fbe008c9fbe0020079800110f980020
:10495000034f980011007800400f980091009000dc
:10496000610f98009e099000a3019000330f9800fa
:104970001e0a900044029000140798009e0a9000be
:10498000b5029000052798003204be002205be0043
:104990006022b8006033b8000800be000a01be0003
:1049a0008c1707000000e00003003d000bf0a200a0
:1049b000d0c2b300040037004e0b90000628a300bd
:1049c00009003200b0c2b3008e239000804b780003
:1049d0003e0890000000e900700f980011002000d0
:1049e000510f9800100037004e0990000238a300c4
:1049f0000900320000c2b3008e2190008049780087
:104a00003e0a90000402e900740f9800150020008f
:104a1000550f9800040037003e0b9000760f980069
:104a20008003eb00570f98000800be000a01be008b
:104a3000c0ff0700f4ff2f00f5ff2f00f6ff2f0047
:104a4000f7ff270004026000858260000603610012
:104a5000878361006000b8000200200003ff270088
:104a60000020e10001a8e10002b0e10003b8e1008c
:104a700011003a000e4890008000fb001104b100c4
:104a80000e219000de09900003004100f98f5000d4
:104a900002003e0001732200010037004173220032
:104aa000d8130700407322000efe07005e0a900034
:104ab00004014000150037000020e10001a8e100da
:104ac00002b0e10003b8e100130036008e4a900006
:104ad0008500fb001104b1000e239000de0b900056
:104ae00007004300f98f500002003e00817322004e
:104af00001003700c1732200c2130700c0732200f7
:104b0000f8fd0700de089000010140004e0a900009
:104b1000be099000500237006022b8006033b80030
:104b20000800be000a01be002a1707000000e000ce
:104b30006a0032006022b8000600200007ff230050
:104b40004417980055179800661798007717980033
:104b50008006eb000800be000a01be00001f98009e
:104b6000111f9800221f9800331f98000e269000f6
:104b7000070037008d06e8000802be000a03be00e9
:104b800044179800551798006617980077179800f3
:104b90006022b80006002000470224004e1090005a
:104ba000de1090006e119000fe1190009918070021
:104bb0000004be000205be000002be000203be00eb
:104bc0000e1890009e1890002e199000be199000ab
:104bd000001707000000e000e6ff3d000c279800ea
:104be0000006eb004e149000de1490006e1590004d
:104bf000fe1590002500370040ed2f00808f5600f5
:104c000019003d000c00e00016003a006022b800d8
:104c100006002000073524000e1890009e18900012
:104c20002e199000be1990007a1807000002be00ed
:104c30000203be00041f9800151f9800261f98004d
:104c4000371f98006022b8000600200007352400b6
:104c50000800be000a01be006e1807000004be0076
:104c60000205be001c0020006022b80006002000e3
:104c7000470224000800be000a01be00b617070064
:104c80000004be000205be008d06e9000802be0059
:104c90000a03be000e1890009e1890002e19900076
:104ca000be199000cb1607000000e000d2ff3500cf
:104cb0000800be000a01be00401798005117980076
:104cc00062179800731798000e1c90009e1c9000ad
:104cd0002e1d9000be1d9000080037006022b80015
:104ce0000600200007ff230044179800551798007e
:104cf00066179800771798008006eb008e4a9000a0
:104d00000500fb0005fe0700104f98006e0b900099
:104d1000600020000600e000010035006e089000f1
:104d200071c6b3009e4b900081cf53000a003a0039
:104d3000ee0890000100e000cf013200cf01370003
:104d40008d0f5000d3013c00001f980052c6b300e5
:104d5000425f98001e0037009e499000435f980014
:104d60000200370064c6b300445f98000000e8000a
:104d7000001f980060c6b300ce5a900080cf52004a
:104d800013003a000d00e00008003d006000b8008c
:104d90000200200003ff23004017980051179800dd
:104da00062179800731798008006eb0061c6b30085
:104db000415f980070c6b3001e499000804f5100bb
:104dc000030032008e1990008d814100031f98006e
:104dd0004e129000de1290006e139000fe139000b1
:104de000441f9800551f9800661f9800771f980071
:104df0000800be000a01be000017980011179800b5
:104e000022179800331798000006eb000802be0036
:104e10000a03be00540798006507980076079800bb
:104e2000070f9800310037004e1a9000de1a9000ec
:104e30006e1b9000fe1b90000e1090009e109000c4
:104e40002e119000be11900043170700721a070040
:104e50000004be000205be008c1607008002780028
:104e6000250f98004e1a9000de1a90006e1b9000dd
:104e7000fe1b90000800be000a01be00e5170700f7
:104e80000e1290009e1290002e139000be13900000
:104e9000e01607000002be000203be0007f0a200f9
:104ea00004179800151798002617980037179800d0
:104eb0006022b80006002000470224004e1890002f
:104ec000de1890006e199000fe199000221707005e
:104ed0000002be000203be00441f9800551f980048
:104ee000661f9800771f98000c06e8008e1a900045
:104ef000850f5600ccff35005e049000ee04900054
:104f00007e0590008e0d90006022b8000600200003
:104f1000470124004e189000de1890006e19900092
:104f2000fe199000bb1707000002be000203be007e
:104f3000441f9800551f9800661f9800771f98001f
:104f40000e1090009e1090002e119000be11900047
:104f5000201607000000e0000f0035004e1a9000f8
:104f6000de1a90006e1b9000fe1b90000e10900049
:104f70009e1090002e119000be1190001516070093
:104f80000000e00011003a00ae0a90000508a300fe
:104f9000080032000d0037006000b8006011b80052
:104fa000401f9800511f9800621f9800731f9800bf
:104fb000060037006022b8006033b800441f980034
:104fc000551f9800661f9800771f98004e1a900092
:104fd000de1a90006e1b9000fe1b90000800be00c1
:104fe0000a01be00911607000002be000203be00c7
:104ff000041798001517980026179800371798007f
:105000006022b80006002000470224004e109000e5
:10501000de1090006e119000fe1190007d170700c9
:105020000004be000205be000002be000203be0076
:105030000e1090009e1090002e119000be11900056
:10504000e91507000000e000090035008d06e800c2
:1050500060c6b300ce5a900080cf520008003a00dc
:105060000e1b90000603e800061f98001100370091
:105070004e149000de1490006e159000fe15900006
:1050800050c6b3004e599000804f510009003a00bd
:105090000802be000a03be00441f9800551f980076
:1050a000661f9800771f98008002eb004517980054
:1050b000070037000800be000a01be00401f98002c
:1050c000511f9800621f9800731f98004d17980099
:1050d0005e0e90000001eb00220f9800320798004e
:1050e000520798000d0f78006a0037004e1a9000a2
:1050f000de1a90006e1b9000fe1b90000e109000b8
:105100009e1090002e119000be1190009216070084
:10511000c11907000004be000205be00db15070030
:10512000e90f50000100340090002000ce099000eb
:105130000348a3000c003a000000e0000a003a0017
:1051400071c6b3001e4a9000814f520006003a001b
:10515000ce1290000500e00003003d002e0b9000f1
:105160008606e80023003700be0390000700e00039
:105170000c003a00ce1090000100e00009003d0054
:10518000e1c2b3000e21900001717e000c06e80020
:10519000fe0990008301e900730f980014002000bd
:1051a000340798008e2290000c814200ae0e9000d1
:1051b000850178000300370001c3b300015978006e
:1051c0008d06e9000d00e000fbff3a000327980080
:1051d0002e0b9000060646000043b00080717e0052
:1051e0000c06e8000680ea00fe0b90008083430076
:1051f000770f98004e1a9000de1a90006e1b9000f8
:10520000fe1b90000800be000a01be000117070047
:105210000e1290009e1290002e139000be1390006c
:10522000fc1507000002be000203be0007f0a2004a
:10523000041798001517980026179800371798003c
:105240006022b80006002000470224004e1890009b
:10525000de1890006e199000fe1990003e160700af
:105260000002be000203be00441f9800551f9800b4
:10527000661f9800771f9800ce1290008502e90003
:10528000451798005e0390000603e8005607980053
:105290002d0f9800de0390000e189000808f5300b1
:1052a00005003d009e089000410090006500500000
:1052b000800f56008dff39009e0678003e01900059
:1052c0000200e00007003a00ce0990000348a30066
:1052d00004003200e0c2b3000e22900000727e0093
:1052e0000c06e8008e2290000c8042000048eb0083
:1052f00051c6b3004e5b9000814f530038003a0016
:105300009e0390008700e9000041eb0082f27800e4
:105310008001eb000d00e00002003d008d06ea0078
:10532000130020002200200001037800fe0a9000f4
:105330008e239000000478000a00370001037800f3
:10534000a4002000110009008406d80001027800a2
:10535000800678000443b00084737b000201e900fa
:105360008502e9008600e9000d00e000f3ff3a0045
:105370000200e000f1ff3c00750f9800072798003d
:105380000800780001824300b2c2b3000300e000cd
:1053900001003200d2c2b300024a78000101e900e4
:1053a0008e219000828041008e4a90000502fb0011
:1053b0001404b10053c6b300f90f520001003e00bf
:1053c00053c4b300834878007e0b90000683e90045
:1053d000760f9800820f560001003d0089110700ea
:1053e000ce0b900063806300e20f500015003a007e
:1053f0007e0890000000e000120034000e209000b3
:10540000b8fb07008e219000040037007e09900051
:1054100082804100e37078000000e900de0a90001d
:10542000850f5000f9ff3d000327980005804100db
:105430007e09900001032000e8fa07000003eb005a
:10544000360f98000e209000a6fb07004e0a900031
:10545000be099000000178008e2090002e00900080
:105460007d0207004f06be004f05be004f04be0080
:105470000080fa000000060010002000e48f4600c3
:105480002ffe3d00001f980057c6b300475f9800ed
:105490004ffe37000d00e00032fe3500001f98007f
:1054a00042fe37000200fa00889fbe008a9fbe00bd
:1054b000800578000104780002007800180190004f
:1054c0002805900098007800b1bf9f00b8049000b4
:1054d0000200e000020035000110a100b1bf9f00f2
:1054e000ea815700820020008a0078003002be0066
:1054f0002003be0008007800490007003fb997006c
:10550000f0006100030032000000e90001c3b300b5
:10551000817478003fb99700e80061000300320011
:105520000000e90001c2b3008174780048019000d6
:105530000201e90000015100808044003fba970059
:105540008a0178000b007800430207009b0090005e
:105550000188a3000400320098009000810f5000e1
:1055600001003d00010078004f05be004f04be0061
:105570000080fa0000000600ea874700889fbe000e
:105580008a9fbe008e1f7800000478000300780018
:105590007287570084e2260055c72600049fbe008c
:1055a000c3962200030f78006c875700004feb0072
:1055b00011059000a1049000910578000200e00020
:1055c000020032000207780001003700728757009e
:1055d0000000e00002003a000e00780041fb0700e6
:1055e0000a00e000030035008a0f50000100360079
:1055f0000a0078000b027800890178000001780029
:105600008e00780008007800130207004f0778002a
:105610004f05be004f04be00af00b1000000060001
:10562000f4874700889fbe008a9fbe008c9fbe0003
:105630008e1f78000605be000404be0081bf9f00d7
:1056400082b79f00f3b79f00b0009000e1b79f00c2
:105650001301780092b79f009006900040009000e0
:105660000000e900000678000d00e00001003d00a8
:105670001d0020008040eb00efb1970081717800a1
:105680001e0020001f0037000c06e9000fb0970035
:10569000cf80de006109b900a0b79f00b1b79f00bd
